{
  "_format": "hh-sol-artifact-1",
  "contractName": "BuyMeACoffee",
  "sourceName": "contracts/BuyMeACoffee.sol",
  "abi": [
    {
      "inputs": [],
      "stateMutability": "nonpayable",
      "type": "constructor"
    },
    {
      "inputs": [
        {
          "internalType": "string",
          "name": "name",
          "type": "string"
        },
        {
          "internalType": "string",
          "name": "feedBack",
          "type": "string"
        }
      ],
      "name": "funding",
      "outputs": [],
      "stateMutability": "payable",
      "type": "function"
    },
    {
      "inputs": [],
      "name": "getFeedbacks",
      "outputs": [
        {
          "components": [
            {
              "internalType": "string",
              "name": "name",
              "type": "string"
            },
            {
              "internalType": "string",
              "name": "feedBack",
              "type": "string"
            },
            {
              "internalType": "uint256",
              "name": "timestamp",
              "type": "uint256"
            },
            {
              "internalType": "address",
              "name": "from",
              "type": "address"
            }
          ],
          "internalType": "struct BuyMeACoffee.FeedBack[]",
          "name": "",
          "type": "tuple[]"
        }
      ],
      "stateMutability": "view",
      "type": "function"
    }
  ],
  "bytecode": "0x608060405234801561001057600080fd5b5033600160006101000a81548173ffffffffffffffffffffffffffffffffffffffff021916908373ffffffffffffffffffffffffffffffffffffffff160217905550610b89806100616000396000f3fe6080604052600436106100295760003560e01c80633a1d56991461002e5780634283757b14610059575b600080fd5b34801561003a57600080fd5b50610043610075565b6040516100509190610691565b60405180910390f35b610073600480360381019061006e9190610722565b610258565b005b60606000805480602002602001604051908101604052809291908181526020016000905b8282101561024f57838290600052602060002090600402016040518060800160405290816000820180546100cc906107d2565b80601f01602080910402602001604051908101604052809291908181526020018280546100f8906107d2565b80156101455780601f1061011a57610100808354040283529160200191610145565b820191906000526020600020905b81548152906001019060200180831161012857829003601f168201915b5050505050815260200160018201805461015e906107d2565b80601f016020809104026020016040519081016040528092919081815260200182805461018a906107d2565b80156101d75780601f106101ac576101008083540402835291602001916101d7565b820191906000526020600020905b8154815290600101906020018083116101ba57829003601f168201915b50505050508152602001600282015481526020016003820160009054906101000a900473ffffffffffffffffffffffffffffffffffffffff1673ffffffffffffffffffffffffffffffffffffffff1673ffffffffffffffffffffffffffffffffffffffff168152505081526020019060010190610099565b50505050905090565b66038d7ea4c680008034116102a2576040517f08c379a000000000000000000000000000000000000000000000000000000000815260040161029990610886565b60405180910390fd5b600160009054906101000a900473ffffffffffffffffffffffffffffffffffffffff1673ffffffffffffffffffffffffffffffffffffffff166108fc349081150290604051600060405180830381858888f1935050505015801561030a573d6000803e3d6000fd5b506000604051806080016040528087878080601f016020809104026020016040519081016040528093929190818152602001838380828437600081840152601f19601f82011690508083019250505050505050815260200185858080601f016020809104026020016040519081016040528093929190818152602001838380828437600081840152601f19601f8201169050808301925050505050505081526020014281526020013373ffffffffffffffffffffffffffffffffffffffff168152509080600181540180825580915050600190039060005260206000209060040201600090919091909150600082015181600001908161040a9190610a81565b5060208201518160010190816104209190610a81565b506040820151816002015560608201518160030160006101000a81548173ffffffffffffffffffffffffffffffffffffffff021916908373ffffffffffffffffffffffffffffffffffffffff16021790555050505050505050565b600081519050919050565b600082825260208201905092915050565b6000819050602082019050919050565b600081519050919050565b600082825260208201905092915050565b60005b838110156104e15780820151818401526020810190506104c6565b60008484015250505050565b6000601f19601f8301169050919050565b6000610509826104a7565b61051381856104b2565b93506105238185602086016104c3565b61052c816104ed565b840191505092915050565b6000819050919050565b61054a81610537565b82525050565b600073ffffffffffffffffffffffffffffffffffffffff82169050919050565b600061057b82610550565b9050919050565b61058b81610570565b82525050565b600060808301600083015184820360008601526105ae82826104fe565b915050602083015184820360208601526105c882826104fe565b91505060408301516105dd6040860182610541565b5060608301516105f06060860182610582565b508091505092915050565b60006106078383610591565b905092915050565b6000602082019050919050565b60006106278261047b565b6106318185610486565b93508360208202850161064385610497565b8060005b8581101561067f578484038952815161066085826105fb565b945061066b8361060f565b925060208a01995050600181019050610647565b50829750879550505050505092915050565b600060208201905081810360008301526106ab818461061c565b905092915050565b600080fd5b600080fd5b600080fd5b600080fd5b600080fd5b60008083601f8401126106e2576106e16106bd565b5b8235905067ffffffffffffffff8111156106ff576106fe6106c2565b5b60208301915083600182028301111561071b5761071a6106c7565b5b9250929050565b6000806000806040858703121561073c5761073b6106b3565b5b600085013567ffffffffffffffff81111561075a576107596106b8565b5b610766878288016106cc565b9450945050602085013567ffffffffffffffff811115610789576107886106b8565b5b610795878288016106cc565b925092505092959194509250565b7f4e487b7100000000000000000000000000000000000000000000000000000000600052602260045260246000fd5b600060028204905060018216806107ea57607f821691505b6020821081036107fd576107fc6107a3565b5b50919050565b600082825260208201905092915050565b7f506c656173652073656e64206d6f7265207468616e20302e303031206574686560008201527f7200000000000000000000000000000000000000000000000000000000000000602082015250565b6000610870602183610803565b915061087b82610814565b604082019050919050565b6000602082019050818103600083015261089f81610863565b9050919050565b7f4e487b7100000000000000000000000000000000000000000000000000000000600052604160045260246000fd5b60008190508160005260206000209050919050565b60006020601f8301049050919050565b600082821b905092915050565b6000600883026109377fffffffffffffffffffffffffffffffffffffffffffffffffffffffffffffffff826108fa565b61094186836108fa565b95508019841693508086168417925050509392505050565b6000819050919050565b600061097e61097961097484610537565b610959565b610537565b9050919050565b6000819050919050565b61099883610963565b6109ac6109a482610985565b848454610907565b825550505050565b600090565b6109c16109b4565b6109cc81848461098f565b505050565b5b818110156109f0576109e56000826109b9565b6001810190506109d2565b5050565b601f821115610a3557610a06816108d5565b610a0f846108ea565b81016020851015610a1e578190505b610a32610a2a856108ea565b8301826109d1565b50505b505050565b600082821c905092915050565b6000610a5860001984600802610a3a565b1980831691505092915050565b6000610a718383610a47565b9150826002028217905092915050565b610a8a826104a7565b67ffffffffffffffff811115610aa357610aa26108a6565b5b610aad82546107d2565b610ab88282856109f4565b600060209050601f831160018114610aeb5760008415610ad9578287015190505b610ae38582610a65565b865550610b4b565b601f198416610af9866108d5565b60005b82811015610b2157848901518255600182019150602085019450602081019050610afc565b86831015610b3e5784890151610b3a601f891682610a47565b8355505b6001600288020188555050505b50505050505056fea26469706673582212202ecc7ebb0a8d7e2f82bedd95eac62eb2265d402f2ec86d45ece912460310f3fe64736f6c63430008130033",
  "linkReferences": {},
  "deployedLinkReferences": {}
}